:1000000019C0FECFFDCFFCCFFBCFFACFF9CFF8CF91
:10001000F7CFF6CFF5CFF4CFF3CFF2CF3AC0F0CF92
:10002000EFCFEECFEDCFFF02500502000600060035
:1000300026000000F894EE27ECBBF1E0FBBFEBBF1D
:10004000E5BFF8E1F1BDE1BD8DE0A2E0BB27ED9396
:100050008A95E9F780E094E0A0E6ED930197E9F74F
:10006000ECE2F0E085919591009761F0A591B59152
:1000700005901590BF01F00105900D920197E1F7F1
:10008000FB01F0CFEFE5EDBFE4E0EEBFC0E6D1E06D
:10009000F5C00A921A926A937A938A939A93AA93D2
:1000A000BA93EA93FA93EFB7EA9324D204B115B165
:1000B000D80188279927E8EEF3E060E070E0B7D137
:1000C000DF01CB01EEE6F1E060E070E0EDD12F0161
:1000D0002AB53BB5F501E80DF91DE415F50520F548
:1000E000F201E819F90933D118F02451304010C059
:1000F0004333E0E05E0718F02550304009C0453139
:10010000E0E05E0718F02250304002C0215030403D
:1001100000240216030621F02433E3E33E0710F027
:1001200020E030E03BBD2ABDF501E80DF91D4E167B
:100130005F06F0F4F401E419F50909D118F02C5E1A
:100140003F4F10C04333E0E05E0718F02B5F3F4F96
:1001500009C04531E0E05E0718F02E5F3F4F02C056
:100160002F5F3F4F6216730608F493013BBD2ABD13
:10017000E2EEF4E0E415F50510F49498C29AE0EB91
:10018000F4E04E165F0610F4949AC298BAD12696FF
:10019000E991EFBFF991E991B991A991999189916B
:1001A00079916991199009901895AA93F894E98129
:1001B000E13021F4C49AC598C3980BC0E23021F411
:1001C000C498C59AC39805C0E33019F4C498C5987B
:1001D000C39AA881A13011F4969A01C09698EA8139
:1001E000E13021F4B9D09298C79845C0E23031F49B
:1001F000B9D09598BAD09298C79A3DC0E33029F407
:10020000B1D0B6D09298C79A36C0E43019F4A4D0D1
:10021000B3D031C0E53029F4939AC098A9D0ACD0BE
:100220002AC0E63031F4939AC098959A9ED0A4D013
:1002300022C0E73021F496D0959AA1D01CC0E830B6
:1002400029F490D0959A91D097D015C0E93021F437
:1002500089D08ED091D00FC0E03031F483D0959A00
:1002600084D0929AC79807C0EA3029F49398C0982E
:10027000959885D0969878942396089515E4E0E0B3
:10028000E8BBEFEFE7BBEEE1E5BBE3E0E4BBE9E1B0
:10029000E2BBEFEFE1BBE2E8EFBDE1E1EEBDE0E0A4
:1002A000EDBDECBDE2E0E7BDEFEFE6BDE0E0EBBDAC
:1002B000E0E1EABDE0E0E9BDE8BDE5E4E7B9EFEF84
:1002C000E6B9E0E0E0BFA4E65FD0789426971F5F30
:1002D000163411F4920110E02C833D8357D0E8EEE0
:1002E000F3E0AAD0EB83AB81B0E0E8EEF3E09AD084
:1002F00050D0E4E6F0E0A0D0EA83AA81E4E6EA9FE9
:10030000F00147D0EAE0F0E097D0E983A981EAE084
:10031000EA9FF0013BD0AE1BBF0BAC83BD83EC81E9
:10032000E883EA93E1E03BD0E981EA93E2E037D069
:10033000EA81EA93E3E0EA93A1E037DFA1E024D089
:10034000EAE0EA93E3E02BD02696C0CFFFCFAF01DF
:100350004536E0E05E0708959398C09A959A97987D
:10036000C6980895939AC09A0895979AC69A089540
:10037000959A979AC6980895929AC79A08959798C9
:10038000C6989298C7980895B0E00EC0AC81BD8120
:100390000895FCDFAE1BBF0BAC83BD83F7CFEA93A0
:1003A000A0E003DFA1E0F0CF109639F088EE93E0F3
:1003B0000197F1F7A8951197C9F70895F195E1957F
:1003C000F0400895F09560957095E195FF4F6F4F5F
:1003D0007F4F0895FA9FF02DEB9FF00DEA9FE02DDF
:1003E000F10D08957A9F702D6B9F700DF89F700D21
:1003F000E99F700D6A9F602D710DFB9F600D711D4F
:10040000E89F600D711D8827FA9FF02D610D781F00
:10041000EB9FF00D611D781FEA9FE02DF10D681F25
:10042000781F089546D0D6DF0EF4C8DF08954FD068
:10043000D9DF0EF4C7DF08950024112490E1AA0F3C
:10044000BB1F001C111C0E1A1F0A18F40E0E1F1ED3
:1004500001C0A1609A9599F7FD01D00108953F93DD
:100460004F935F93002411244427552730E2AA0FAD
:10047000BB1F881F991F001C111C441F551F0E1AFB
:100480001F0A460B570B28F40E0E1F1E461F571F40
:1004900001C0A1603A9559F7FD01BC01D001CA0124
:1004A0005F914F913F91089512D0D9DF0EF48ADF0A
:1004B0000895E894F7FF02C081DF6894B7FF06C093
:1004C000A095B095119600F8039400FA0895E89469
:1004D00077FF02C077DF689497FF0BC00024A095D8
:1004E000B095809590951196801D901D00F803940D
:1004F00000FA08955A934A933A932A931A930A93C7
:1005000008955D814C813B812A811981088108957C
:00000001FF
